{
  "contractName": "DNote",
  "abi": [
    {
      "constant": true,
      "inputs": [],
      "name": "noteCount",
      "outputs": [
        {
          "name": "",
          "type": "uint256"
        }
      ],
      "payable": false,
      "stateMutability": "view",
      "type": "function"
    },
    {
      "constant": true,
      "inputs": [
        {
          "name": "",
          "type": "address"
        },
        {
          "name": "",
          "type": "uint256"
        }
      ],
      "name": "authorIds",
      "outputs": [
        {
          "name": "",
          "type": "bool"
        }
      ],
      "payable": false,
      "stateMutability": "view",
      "type": "function"
    },
    {
      "constant": true,
      "inputs": [
        {
          "name": "",
          "type": "uint256"
        }
      ],
      "name": "notes",
      "outputs": [
        {
          "components": [
            {
              "name": "author",
              "type": "address"
            },
            {
              "name": "title",
              "type": "string"
            },
            {
              "name": "content",
              "type": "string"
            },
            {
              "name": "tag",
              "type": "string"
            },
            {
              "name": "time",
              "type": "uint256"
            }
          ],
          "name": "note",
          "type": "tuple"
        },
        {
          "name": "valid",
          "type": "bool"
        }
      ],
      "payable": false,
      "stateMutability": "view",
      "type": "function"
    },
    {
      "constant": true,
      "inputs": [
        {
          "name": "",
          "type": "address"
        }
      ],
      "name": "authorCountMap",
      "outputs": [
        {
          "name": "",
          "type": "uint256"
        }
      ],
      "payable": false,
      "stateMutability": "view",
      "type": "function"
    },
    {
      "constant": true,
      "inputs": [],
      "name": "owner",
      "outputs": [
        {
          "name": "",
          "type": "address"
        }
      ],
      "payable": false,
      "stateMutability": "view",
      "type": "function"
    },
    {
      "constant": true,
      "inputs": [
        {
          "name": "",
          "type": "bytes32"
        }
      ],
      "name": "tagCountMap",
      "outputs": [
        {
          "name": "",
          "type": "uint256"
        }
      ],
      "payable": false,
      "stateMutability": "view",
      "type": "function"
    },
    {
      "constant": true,
      "inputs": [],
      "name": "lastId",
      "outputs": [
        {
          "name": "",
          "type": "uint256"
        }
      ],
      "payable": false,
      "stateMutability": "view",
      "type": "function"
    },
    {
      "constant": true,
      "inputs": [
        {
          "name": "",
          "type": "address"
        },
        {
          "name": "",
          "type": "bytes32"
        }
      ],
      "name": "authorTitleMap",
      "outputs": [
        {
          "name": "",
          "type": "bool"
        }
      ],
      "payable": false,
      "stateMutability": "view",
      "type": "function"
    },
    {
      "inputs": [],
      "payable": false,
      "stateMutability": "nonpayable",
      "type": "constructor"
    },
    {
      "payable": false,
      "stateMutability": "nonpayable",
      "type": "fallback"
    },
    {
      "anonymous": false,
      "inputs": [
        {
          "indexed": true,
          "name": "_author",
          "type": "address"
        },
        {
          "indexed": true,
          "name": "_id",
          "type": "uint256"
        }
      ],
      "name": "NoteCreated",
      "type": "event"
    },
    {
      "anonymous": false,
      "inputs": [
        {
          "indexed": true,
          "name": "_author",
          "type": "address"
        },
        {
          "indexed": true,
          "name": "_id",
          "type": "uint256"
        }
      ],
      "name": "NoteDeleted",
      "type": "event"
    },
    {
      "anonymous": false,
      "inputs": [
        {
          "indexed": true,
          "name": "_author",
          "type": "address"
        },
        {
          "indexed": true,
          "name": "_id",
          "type": "uint256"
        },
        {
          "indexed": true,
          "name": "_type",
          "type": "uint8"
        }
      ],
      "name": "NoteModified",
      "type": "event"
    },
    {
      "constant": true,
      "inputs": [],
      "name": "getNoteCount",
      "outputs": [
        {
          "name": "",
          "type": "uint256"
        }
      ],
      "payable": false,
      "stateMutability": "view",
      "type": "function"
    },
    {
      "constant": true,
      "inputs": [
        {
          "name": "_author",
          "type": "address"
        }
      ],
      "name": "getNoteCountByAuthor",
      "outputs": [
        {
          "name": "",
          "type": "uint256"
        }
      ],
      "payable": false,
      "stateMutability": "view",
      "type": "function"
    },
    {
      "constant": true,
      "inputs": [
        {
          "name": "_id",
          "type": "uint256"
        }
      ],
      "name": "getNoteById",
      "outputs": [
        {
          "name": "",
          "type": "address"
        },
        {
          "name": "",
          "type": "string"
        },
        {
          "name": "",
          "type": "string"
        },
        {
          "name": "",
          "type": "string"
        },
        {
          "name": "",
          "type": "uint256"
        }
      ],
      "payable": false,
      "stateMutability": "view",
      "type": "function"
    },
    {
      "constant": true,
      "inputs": [
        {
          "name": "_tag",
          "type": "string"
        }
      ],
      "name": "getTagCount",
      "outputs": [
        {
          "name": "",
          "type": "uint256"
        }
      ],
      "payable": false,
      "stateMutability": "view",
      "type": "function"
    },
    {
      "constant": false,
      "inputs": [
        {
          "name": "_title",
          "type": "string"
        },
        {
          "name": "_content",
          "type": "string"
        },
        {
          "name": "_tag",
          "type": "string"
        }
      ],
      "name": "createNote",
      "outputs": [
        {
          "name": "",
          "type": "bool"
        }
      ],
      "payable": false,
      "stateMutability": "nonpayable",
      "type": "function"
    },
    {
      "constant": false,
      "inputs": [
        {
          "name": "_id",
          "type": "uint256"
        }
      ],
      "name": "deleteNote",
      "outputs": [
        {
          "name": "",
          "type": "bool"
        }
      ],
      "payable": false,
      "stateMutability": "nonpayable",
      "type": "function"
    },
    {
      "constant": false,
      "inputs": [
        {
          "name": "_id",
          "type": "uint256"
        },
        {
          "name": "_newTitle",
          "type": "string"
        }
      ],
      "name": "modifyTitle",
      "outputs": [
        {
          "name": "",
          "type": "bool"
        }
      ],
      "payable": false,
      "stateMutability": "nonpayable",
      "type": "function"
    },
    {
      "constant": false,
      "inputs": [
        {
          "name": "_id",
          "type": "uint256"
        },
        {
          "name": "_newContent",
          "type": "string"
        }
      ],
      "name": "modifyContent",
      "outputs": [
        {
          "name": "",
          "type": "bool"
        }
      ],
      "payable": false,
      "stateMutability": "nonpayable",
      "type": "function"
    },
    {
      "constant": false,
      "inputs": [
        {
          "name": "_id",
          "type": "uint256"
        },
        {
          "name": "_newTitle",
          "type": "string"
        },
        {
          "name": "_newContent",
          "type": "string"
        }
      ],
      "name": "modifyNote",
      "outputs": [
        {
          "name": "",
          "type": "bool"
        }
      ],
      "payable": false,
      "stateMutability": "nonpayable",
      "type": "function"
    }
  ],
  "bytecode": "0x608060405234801561001057600080fd5b5033600760006101000a81548173ffffffffffffffffffffffffffffffffffffffff021916908373ffffffffffffffffffffffffffffffffffffffff160217905550612fc4806100616000396000f3006080604052600436106100f1576000357c0100000000000000000000000000000000000000000000000000000000900463ffffffff1680630ce5f3eb14610100578063158781c2146102b85780632ca7963a14610343578063317a4c76146104145780633ee71d4f1461043f57806341fb87fb146104a457806361c3a7e6146104cf5780638caf6bfa1461051b5780638da5cb5b146105725780639f9c2714146105c9578063a48e708214610646578063b80831f8146106d1578063c1292cc314610716578063c47177f414610741578063ce6475e814610786578063e1638fa5146107ef578063ffe6574914610846575b3480156100fd57600080fd5b50005b34801561010c57600080fd5b5061012b60048036038101908080359060200190929190505050610953565b604051808673ffffffffffffffffffffffffffffffffffffffff1673ffffffffffffffffffffffffffffffffffffffff168152602001806020018060200180602001858152602001848103845288818151815260200191508051906020019080838360005b838110156101ab578082015181840152602081019050610190565b50505050905090810190601f1680156101d85780820380516001836020036101000a031916815260200191505b50848103835287818151815260200191508051906020019080838360005b838110156102115780820151818401526020810190506101f6565b50505050905090810190601f16801561023e5780820380516001836020036101000a031916815260200191505b50848103825286818151815260200191508051906020019080838360005b8381101561027757808201518184015260208101905061025c565b50505050905090810190601f1680156102a45780820380516001836020036101000a031916815260200191505b509850505050505050505060405180910390f35b3480156102c457600080fd5b5061032960048036038101908080359060200190929190803590602001908201803590602001908080601f0160208091040260200160405190810160405280939291908181526020018383808284378201915050505050509192919290505050610b92565b604051808215151515815260200191505060405180910390f35b34801561034f57600080fd5b506103fa60048036038101908080359060200190929190803590602001908201803590602001908080601f0160208091040260200160405190810160405280939291908181526020018383808284378201915050505050509192919290803590602001908201803590602001908080601f0160208091040260200160405190810160405280939291908181526020018383808284378201915050505050509192919290505050610f6c565b604051808215151515815260200191505060405180910390f35b34801561042057600080fd5b506104296115f4565b6040518082815260200191505060405180910390f35b34801561044b57600080fd5b5061048a600480360381019080803573ffffffffffffffffffffffffffffffffffffffff169060200190929190803590602001909291905050506115fa565b604051808215151515815260200191505060405180910390f35b3480156104b057600080fd5b506104b9611629565b6040518082815260200191505060405180910390f35b3480156104db57600080fd5b506104fa60048036038101908080359060200190929190505050611633565b60405180838152602001821515151581526020019250505060405180910390f35b34801561052757600080fd5b5061055c600480360381019080803573ffffffffffffffffffffffffffffffffffffffff1690602001909291905050506118b5565b6040518082815260200191505060405180910390f35b34801561057e57600080fd5b506105876118cd565b604051808273ffffffffffffffffffffffffffffffffffffffff1673ffffffffffffffffffffffffffffffffffffffff16815260200191505060405180910390f35b3480156105d557600080fd5b50610630600480360381019080803590602001908201803590602001908080601f01602080910402602001604051908101604052809392919081815260200183838082843782019150505050505091929192905050506118f3565b6040518082815260200191505060405180910390f35b34801561065257600080fd5b506106b760048036038101908080359060200190929190803590602001908201803590602001908080601f016020809104026020016040519081016040528093929190818152602001838380828437820191505050505050919291929050505061197a565b604051808215151515815260200191505060405180910390f35b3480156106dd57600080fd5b506107006004803603810190808035600019169060200190929190505050611d04565b6040518082815260200191505060405180910390f35b34801561072257600080fd5b5061072b611d1c565b6040518082815260200191505060405180910390f35b34801561074d57600080fd5b5061076c60048036038101908080359060200190929190505050611d22565b604051808215151515815260200191505060405180910390f35b34801561079257600080fd5b506107d5600480360381019080803573ffffffffffffffffffffffffffffffffffffffff1690602001909291908035600019169060200190929190505050611fd6565b604051808215151515815260200191505060405180910390f35b3480156107fb57600080fd5b50610830600480360381019080803573ffffffffffffffffffffffffffffffffffffffff169060200190929190505050612005565b6040518082815260200191505060405180910390f35b34801561085257600080fd5b50610939600480360381019080803590602001908201803590602001908080601f0160208091040260200160405190810160405280939291908181526020018383808284378201915050505050509192919290803590602001908201803590602001908080601f0160208091040260200160405190810160405280939291908181526020018383808284378201915050505050509192919290803590602001908201803590602001908080601f016020809104026020016040519081016040528093929190818152602001838380828437820191505050505050919291929050505061204e565b604051808215151515815260200191505060405180910390f35b6000606080606060008060008088815260200190815260200160002060000190508060000160009054906101000a900473ffffffffffffffffffffffffffffffffffffffff168160010182600201836003018460040154838054600181600116156101000203166002900480601f016020809104026020016040519081016040528092919081815260200182805460018160011615610100020316600290048015610a3f5780601f10610a1457610100808354040283529160200191610a3f565b820191906000526020600020905b815481529060010190602001808311610a2257829003601f168201915b50505050509350828054600181600116156101000203166002900480601f016020809104026020016040519081016040528092919081815260200182805460018160011615610100020316600290048015610adb5780601f10610ab057610100808354040283529160200191610adb565b820191906000526020600020905b815481529060010190602001808311610abe57829003601f168201915b50505050509250818054600181600116156101000203166002900480601f016020809104026020016040519081016040528092919081815260200182805460018160011615610100020316600290048015610b775780601f10610b4c57610100808354040283529160200191610b77565b820191906000526020600020905b815481529060010190602001808311610b5a57829003601f168201915b50505050509150955095509550955095505091939590929450565b60008260008082815260200190815260200160002060050160009054906101000a900460ff161515610bc357600080fd5b8360008082815260200190815260200160002060000160000160009054906101000a900473ffffffffffffffffffffffffffffffffffffffff1673ffffffffffffffffffffffffffffffffffffffff163373ffffffffffffffffffffffffffffffffffffffff16141515610c3657600080fd5b848473__StringHandler_________________________6364de095a826040518263ffffffff167c01000000000000000000000000000000000000000000000000000000000281526004018080602001828103825283818151815260200191508051906020019080838360005b83811015610cbe578082015181840152602081019050610ca3565b50505050905090810190601f168015610ceb5780820380516001836020036101000a031916815260200191505b509250505060206040518083038186803b158015610d0857600080fd5b505af4158015610d1c573d6000803e3d6000fd5b505050506040513d6020811015610d3257600080fd5b8101908080519060200190929190505050158015610ef9575073__StringHandler_________________________6346bdca9a600080858152602001908152602001600020600001600201836040518363ffffffff167c0100000000000000000000000000000000000000000000000000000000028152600401808060200180602001838103835285818154600181600116156101000203166002900481526020019150805460018160011615610100020316600290048015610e365780601f10610e0b57610100808354040283529160200191610e36565b820191906000526020600020905b815481529060010190602001808311610e1957829003601f168201915b5050838103825284818151815260200191508051906020019080838360005b83811015610e70578082015181840152602081019050610e55565b50505050905090810190601f168015610e9d5780820380516001836020036101000a031916815260200191505b5094505050505060206040518083038186803b158015610ebc57600080fd5b505af4158015610ed0573d6000803e3d6000fd5b505050506040513d6020811015610ee657600080fd5b8101908080519060200190929190505050155b1515610f0457600080fd5b856000808981526020019081526020016000206000016002019080519060200190610f30929190612de5565b50610f5e876020604051908101604052806000815250602060405190810160405280600081525060026124ca565b600194505050505092915050565b600060608460008082815260200190815260200160002060050160009054906101000a900460ff161515610f9f57600080fd5b8560008082815260200190815260200160002060000160000160009054906101000a900473ffffffffffffffffffffffffffffffffffffffff1673ffffffffffffffffffffffffffffffffffffffff163373ffffffffffffffffffffffffffffffffffffffff1614151561101257600080fd5b8573__StringHandler_________________________6364de095a826040518263ffffffff167c01000000000000000000000000000000000000000000000000000000000281526004018080602001828103825283818151815260200191508051906020019080838360005b8381101561109957808201518184015260208101905061107e565b50505050905090810190601f1680156110c65780820380516001836020036101000a031916815260200191505b509250505060206040518083038186803b1580156110e357600080fd5b505af41580156110f7573d6000803e3d6000fd5b505050506040513d602081101561110d57600080fd5b81019080805190602001909291905050501580156111f05750600360003373ffffffffffffffffffffffffffffffffffffffff1673ffffffffffffffffffffffffffffffffffffffff1681526020019081526020016000206000826040518082805190602001908083835b60208310151561119d5780518252602082019150602081019050602083039250611178565b6001836020036101000a03801982511681845116808217855250505050505090500191505060405180910390206000191660001916815260200190815260200160002060009054906101000a900460ff16155b15156111fb57600080fd5b878673__StringHandler_________________________6364de095a826040518263ffffffff167c01000000000000000000000000000000000000000000000000000000000281526004018080602001828103825283818151815260200191508051906020019080838360005b83811015611283578082015181840152602081019050611268565b50505050905090810190601f1680156112b05780820380516001836020036101000a031916815260200191505b509250505060206040518083038186803b1580156112cd57600080fd5b505af41580156112e1573d6000803e3d6000fd5b505050506040513d60208110156112f757600080fd5b81019080805190602001909291905050501580156114be575073__StringHandler_________________________6346bdca9a600080858152602001908152602001600020600001600201836040518363ffffffff167c01000000000000000000000000000000000000000000000000000000000281526004018080602001806020018381038352858181546001816001161561010002031660029004815260200191508054600181600116156101000203166002900480156113fb5780601f106113d0576101008083540402835291602001916113fb565b820191906000526020600020905b8154815290600101906020018083116113de57829003601f168201915b5050838103825284818151815260200191508051906020019080838360005b8381101561143557808201518184015260208101905061141a565b50505050905090810190601f1680156114625780820380516001836020036101000a031916815260200191505b5094505050505060206040518083038186803b15801561148157600080fd5b505af4158015611495573d6000803e3d6000fd5b505050506040513d60208110156114ab57600080fd5b8101908080519060200190929190505050155b15156114c957600080fd5b6000808b81526020019081526020016000206000016001018054600181600116156101000203166002900480601f0160208091040260200160405190810160405280929190818152602001828054600181600116156101000203166002900480156115755780601f1061154a57610100808354040283529160200191611575565b820191906000526020600020905b81548152906001019060200180831161155857829003601f168201915b50505050509550886000808c815260200190815260200160002060000160010190805190602001906115a8929190612de5565b50876000808c815260200190815260200160002060000160020190805190602001906115d5929190612de5565b506115e38a878b60006124ca565b600196505050505050509392505050565b60055481565b60016020528160005260406000206020528060005260406000206000915091509054906101000a900460ff1681565b6000600554905090565b60006020528060005260406000206000915090508060000160a060405190810160405290816000820160009054906101000a900473ffffffffffffffffffffffffffffffffffffffff1673ffffffffffffffffffffffffffffffffffffffff1673ffffffffffffffffffffffffffffffffffffffff168152602001600182018054600181600116156101000203166002900480601f0160208091040260200160405190810160405280929190818152602001828054600181600116156101000203166002900480156117465780601f1061171b57610100808354040283529160200191611746565b820191906000526020600020905b81548152906001019060200180831161172957829003601f168201915b50505050508152602001600282018054600181600116156101000203166002900480601f0160208091040260200160405190810160405280929190818152602001828054600181600116156101000203166002900480156117e85780601f106117bd576101008083540402835291602001916117e8565b820191906000526020600020905b8154815290600101906020018083116117cb57829003601f168201915b50505050508152602001600382018054600181600116156101000203166002900480601f01602080910402602001604051908101604052809291908181526020018280546001816001161561010002031660029004801561188a5780601f1061185f5761010080835404028352916020019161188a565b820191906000526020600020905b81548152906001019060200180831161186d57829003601f168201915b50505050508152602001600482015481525050908060050160009054906101000a900460ff16905082565b60026020528060005260406000206000915090505481565b600760009054906101000a900473ffffffffffffffffffffffffffffffffffffffff1681565b600060046000836040518082805190602001908083835b60208310151561192f578051825260208201915060208101905060208303925061190a565b6001836020036101000a038019825116818451168082178552505050505050905001915050604051809103902060001916600019168152602001908152602001600020549050919050565b600060608360008082815260200190815260200160002060050160009054906101000a900460ff1615156119ad57600080fd5b8460008082815260200190815260200160002060000160000160009054906101000a900473ffffffffffffffffffffffffffffffffffffffff1673ffffffffffffffffffffffffffffffffffffffff163373ffffffffffffffffffffffffffffffffffffffff16141515611a2057600080fd5b8473__StringHandler_________________________6364de095a826040518263ffffffff167c01000000000000000000000000000000000000000000000000000000000281526004018080602001828103825283818151815260200191508051906020019080838360005b83811015611aa7578082015181840152602081019050611a8c565b50505050905090810190601f168015611ad45780820380516001836020036101000a031916815260200191505b509250505060206040518083038186803b158015611af157600080fd5b505af4158015611b05573d6000803e3d6000fd5b505050506040513d6020811015611b1b57600080fd5b8101908080519060200190929190505050158015611bfe5750600360003373ffffffffffffffffffffffffffffffffffffffff1673ffffffffffffffffffffffffffffffffffffffff1681526020019081526020016000206000826040518082805190602001908083835b602083101515611bab5780518252602082019150602081019050602083039250611b86565b6001836020036101000a03801982511681845116808217855250505050505090500191505060405180910390206000191660001916815260200190815260200160002060009054906101000a900460ff16155b1515611c0957600080fd5b6000808881526020019081526020016000206000016001018054600181600116156101000203166002900480601f016020809104026020016040519081016040528092919081815260200182805460018160011615610100020316600290048015611cb55780601f10611c8a57610100808354040283529160200191611cb5565b820191906000526020600020905b815481529060010190602001808311611c9857829003601f168201915b50505050509350856000808981526020019081526020016000206000016001019080519060200190611ce8929190612de5565b50611cf687858860016124ca565b600194505050505092915050565b60046020528060005260406000206000915090505481565b60065481565b60006060808360008082815260200190815260200160002060050160009054906101000a900460ff161515611d5657600080fd5b8460008082815260200190815260200160002060000160000160009054906101000a900473ffffffffffffffffffffffffffffffffffffffff1673ffffffffffffffffffffffffffffffffffffffff163373ffffffffffffffffffffffffffffffffffffffff16141515611dc957600080fd5b6000808781526020019081526020016000206000016001018054600181600116156101000203166002900480601f016020809104026020016040519081016040528092919081815260200182805460018160011615610100020316600290048015611e755780601f10611e4a57610100808354040283529160200191611e75565b820191906000526020600020905b815481529060010190602001808311611e5857829003601f168201915b505050505093506000808781526020019081526020016000206000016003018054600181600116156101000203166002900480601f016020809104026020016040519081016040528092919081815260200182805460018160011615610100020316600290048015611f285780601f10611efd57610100808354040283529160200191611f28565b820191906000526020600020905b815481529060010190602001808311611f0b57829003601f168201915b505050505092506000808781526020019081526020016000206000808201600080820160006101000a81549073ffffffffffffffffffffffffffffffffffffffff0219169055600182016000611f7e9190612e65565b600282016000611f8e9190612e65565b600382016000611f9e9190612e65565b600482016000905550506005820160006101000a81549060ff02191690555050611fc98685856126d9565b6001945050505050919050565b60036020528160005260406000206020528060005260406000206000915091509054906101000a900460ff1681565b6000600260008373ffffffffffffffffffffffffffffffffffffffff1673ffffffffffffffffffffffffffffffffffffffff168152602001908152602001600020549050919050565b6000612058612ead565b848473__StringHandler_________________________6364de095a836040518263ffffffff167c01000000000000000000000000000000000000000000000000000000000281526004018080602001828103825283818151815260200191508051906020019080838360005b838110156120e05780820151818401526020810190506120c5565b50505050905090810190601f16801561210d5780820380516001836020036101000a031916815260200191505b509250505060206040518083038186803b15801561212a57600080fd5b505af415801561213e573d6000803e3d6000fd5b505050506040513d602081101561215457600080fd5b810190808051906020019092919050505015801561227a575073__StringHandler_________________________6364de095a826040518263ffffffff167c01000000000000000000000000000000000000000000000000000000000281526004018080602001828103825283818151815260200191508051906020019080838360005b838110156121f35780820151818401526020810190506121d8565b50505050905090810190601f1680156122205780820380516001836020036101000a031916815260200191505b509250505060206040518083038186803b15801561223d57600080fd5b505af4158015612251573d6000803e3d6000fd5b505050506040513d602081101561226757600080fd5b8101908080519060200190929190505050155b151561228557600080fd5b86600360003373ffffffffffffffffffffffffffffffffffffffff1673ffffffffffffffffffffffffffffffffffffffff1681526020019081526020016000206000826040518082805190602001908083835b6020831015156122fd57805182526020820191506020810190506020830392506122d8565b6001836020036101000a03801982511681845116808217855250505050505090500191505060405180910390206000191660001916815260200190815260200160002060009054906101000a900460ff1615151561235a57600080fd5b60066000815480929190600101919050555060a0604051908101604052803373ffffffffffffffffffffffffffffffffffffffff168152602001898152602001888152602001878152602001428152509350604080519081016040528085815260200160011515815250600080600654815260200190815260200160002060008201518160000160008201518160000160006101000a81548173ffffffffffffffffffffffffffffffffffffffff021916908373ffffffffffffffffffffffffffffffffffffffff1602179055506020820151816001019080519060200190612444929190612ef3565b506040820151816002019080519060200190612461929190612ef3565b50606082015181600301908051906020019061247e929190612ef3565b5060808201518160040155505060208201518160050160006101000a81548160ff0219169083151502179055509050506124bb6006548988612a61565b60019450505050509392505050565b60008160ff1614806124df575060018160ff16145b1561268b576000600360003373ffffffffffffffffffffffffffffffffffffffff1673ffffffffffffffffffffffffffffffffffffffff1681526020019081526020016000206000856040518082805190602001908083835b60208310151561255d5780518252602082019150602081019050602083039250612538565b6001836020036101000a03801982511681845116808217855250505050505090500191505060405180910390206000191660001916815260200190815260200160002060006101000a81548160ff0219169083151502179055506001600360003373ffffffffffffffffffffffffffffffffffffffff1673ffffffffffffffffffffffffffffffffffffffff1681526020019081526020016000206000846040518082805190602001908083835b602083101515612630578051825260208201915060208101905060208303925061260b565b6001836020036101000a03801982511681845116808217855250505050505090500191505060405180910390206000191660001916815260200190815260200160002060006101000a81548160ff0219169083151502179055505b8060ff16843373ffffffffffffffffffffffffffffffffffffffff167fa546519fdf9c6958302e8945a4d20c4846cd64af94819a694b657140479a0b8a60405160405180910390a450505050565b6000600160003373ffffffffffffffffffffffffffffffffffffffff1673ffffffffffffffffffffffffffffffffffffffff168152602001908152602001600020600085815260200190815260200160002060006101000a81548160ff021916908315150217905550600260003373ffffffffffffffffffffffffffffffffffffffff1673ffffffffffffffffffffffffffffffffffffffff16815260200190815260200160002060008154809291906001900391905055506000600360003373ffffffffffffffffffffffffffffffffffffffff1673ffffffffffffffffffffffffffffffffffffffff1681526020019081526020016000206000846040518082805190602001908083835b60208310151561280b57805182526020820191506020810190506020830392506127e6565b6001836020036101000a03801982511681845116808217855250505050505090500191505060405180910390206000191660001916815260200190815260200160002060006101000a81548160ff02191690831515021790555073__StringHandler_________________________6364de095a826040518263ffffffff167c01000000000000000000000000000000000000000000000000000000000281526004018080602001828103825283818151815260200191508051906020019080838360005b838110156128eb5780820151818401526020810190506128d0565b50505050905090810190601f1680156129185780820380516001836020036101000a031916815260200191505b509250505060206040518083038186803b15801561293557600080fd5b505af4158015612949573d6000803e3d6000fd5b505050506040513d602081101561295f57600080fd5b81019080805190602001909291905050501515612a055760046000826040518082805190602001908083835b6020831015156129b0578051825260208201915060208101905060208303925061298b565b6001836020036101000a03801982511681845116808217855250505050505090500191505060405180910390206000191660001916815260200190815260200160002060008154809291906001900391905055505b60056000815480929190600190039190505550823373ffffffffffffffffffffffffffffffffffffffff167fab9e4514a74f5b1933f08ac8f9833934a73b0bff8a2707cb83ad0aeabe63d22460405160405180910390a3505050565b60018060003373ffffffffffffffffffffffffffffffffffffffff1673ffffffffffffffffffffffffffffffffffffffff168152602001908152602001600020600085815260200190815260200160002060006101000a81548160ff021916908315150217905550600260003373ffffffffffffffffffffffffffffffffffffffff1673ffffffffffffffffffffffffffffffffffffffff168152602001908152602001600020600081548092919060010191905055506001600360003373ffffffffffffffffffffffffffffffffffffffff1673ffffffffffffffffffffffffffffffffffffffff1681526020019081526020016000206000846040518082805190602001908083835b602083101515612b915780518252602082019150602081019050602083039250612b6c565b6001836020036101000a03801982511681845116808217855250505050505090500191505060405180910390206000191660001916815260200190815260200160002060006101000a81548160ff02191690831515021790555073__StringHandler_________________________6364de095a826040518263ffffffff167c01000000000000000000000000000000000000000000000000000000000281526004018080602001828103825283818151815260200191508051906020019080838360005b83811015612c71578082015181840152602081019050612c56565b50505050905090810190601f168015612c9e5780820380516001836020036101000a031916815260200191505b509250505060206040518083038186803b158015612cbb57600080fd5b505af4158015612ccf573d6000803e3d6000fd5b505050506040513d6020811015612ce557600080fd5b81019080805190602001909291905050501515612d8a5760046000826040518082805190602001908083835b602083101515612d365780518252602082019150602081019050602083039250612d11565b6001836020036101000a038019825116818451168082178552505050505050905001915050604051809103902060001916600019168152602001908152602001600020600081548092919060010191905055505b600560008154809291906001019190505550823373ffffffffffffffffffffffffffffffffffffffff167fc811947b0f0ba3fb45d1bf478b1b0c4b06e2d26e31bf9fb75b83235d7bb3ea2460405160405180910390a3505050565b828054600181600116156101000203166002900490600052602060002090601f016020900481019282601f10612e2657805160ff1916838001178555612e54565b82800160010185558215612e54579182015b82811115612e53578251825591602001919060010190612e38565b5b509050612e619190612f73565b5090565b50805460018160011615610100020316600290046000825580601f10612e8b5750612eaa565b601f016020900490600052602060002090810190612ea99190612f73565b5b50565b60a060405190810160405280600073ffffffffffffffffffffffffffffffffffffffff168152602001606081526020016060815260200160608152602001600081525090565b828054600181600116156101000203166002900490600052602060002090601f016020900481019282601f10612f3457805160ff1916838001178555612f62565b82800160010185558215612f62579182015b82811115612f61578251825591602001919060010190612f46565b5b509050612f6f9190612f73565b5090565b612f9591905b80821115612f91576000816000905550600101612f79565b5090565b905600a165627a7a72305820f1e4b8c213bbc437f13673989673d3b3c139b15a595bc19abc8bf75c5bea55b20029",
  "source": "/**\r\n * @file DNote.sol\r\n * @author sufay\r\n */\r\n\r\npragma solidity ^0.4.23;\r\n\r\n\r\nimport {StringHandler as SH} from \"./lib/StringHandler.sol\";\r\n\r\n\r\n/**\r\n * @title DNote contract which is a decentralized note app\r\n */\r\ncontract DNote {\r\n    // Note contains the basic note information\r\n    struct Note{\r\n        address author;\r\n        string title;\r\n        string content;\r\n        string tag;\r\n        uint time;\r\n    }\r\n\r\n    // WrappedNote wraps the note and provides some other properties\r\n    struct WrappedNote {\r\n        Note note; // the origin note\r\n        bool valid; // indicate if the note is valid\r\n    }\r\n    \r\n    mapping (uint => WrappedNote) public notes; // notes maps id to WrappedNote\r\n    mapping (address => mapping (uint => bool)) public authorIds; // authorIds maps an address to ids\r\n    mapping (address => uint) public authorCountMap; // authorCountMap maps an address to its note count\r\n    mapping (address => mapping (bytes32 => bool)) public authorTitleMap; // a map used to check if a title of a author exists\r\n    mapping (bytes32 => uint) public tagCountMap; // tagCountMap maps a string to the number of the notes tagged by the string\r\n    \r\n    uint public noteCount; // note count\r\n    uint public lastId; // the last id\r\n\r\n    address public owner; // the contract owner\r\n\r\n    /**\r\n     * @dev an event which indicates a note was created\r\n     * @param _author the note author\r\n     * @param _id the note id\r\n     */\r\n    event NoteCreated(address indexed _author, uint indexed _id);\r\n\r\n    /**\r\n     * @dev an event which indicates a note was deleted\r\n     * @param _author the note author\r\n     * @param _id the note id\r\n     */\r\n    event NoteDeleted(address indexed _author, uint indexed _id);\r\n\r\n    /**\r\n     * @dev an event which indicates a note was modified\r\n     * @param _author the note author\r\n     * @param _id the note id\r\n     * @param _type the modification type. 1 means title,\r\n     *              2 means content and 0 means both.\r\n     */\r\n    event NoteModified(address indexed _author, uint indexed _id, uint8 indexed _type);\r\n    \r\n    // only owner is allowed\r\n    modifier onlyOwner() {\r\n        require(msg.sender == owner);\r\n        _;\r\n    }\r\n    \r\n    // only author is permitted\r\n    modifier onlyAuthor(uint _id) {\r\n        require(msg.sender == notes[_id].note.author);\r\n        _;\r\n    }\r\n    \r\n    // assert the title and content are empty neither\r\n    modifier notEmpty(string _title, string _content) {\r\n        require(!SH.empty(_title) && !SH.empty(_content));\r\n        _;\r\n    }\r\n    \r\n    // assert the title is not duplicated by the author\r\n    modifier notDuplicated(string _title) {\r\n        require(!authorTitleMap[msg.sender][keccak256(bytes(_title))]);\r\n        _;\r\n    }\r\n    \r\n    // assert an id exists\r\n    modifier exists(uint _id) {\r\n        require(notes[_id].valid);\r\n        _;\r\n    }\r\n    \r\n    // assert the given title is different from the exsiting ones by the author\r\n    modifier newTitle(string _newTitle) {\r\n        require (\r\n            !SH.empty(_newTitle) &&\r\n            !authorTitleMap[msg.sender][keccak256(bytes(_newTitle))]\r\n        );\r\n\r\n        _;\r\n    }\r\n    \r\n    // assert the given content is different from the exsiting ones by the author\r\n    modifier newContent(uint _id, string _newContent) {\r\n        require (\r\n            !SH.empty(_newContent) &&\r\n            !SH.equal(notes[_id].note.content, _newContent)\r\n        );\r\n\r\n        _;\r\n    }\r\n    \r\n    /**\r\n     * @dev constructor\r\n     */\r\n    constructor() public {\r\n        owner = msg.sender;\r\n    }\r\n\r\n    /**\r\n     * @dev fallback function\r\n     */\r\n    function() public {\r\n        // noop\r\n    }\r\n\r\n    /**\r\n     * @dev get the total number of notes\r\n     */\r\n    function getNoteCount() public view returns (uint) {\r\n        return noteCount;\r\n    }\r\n\r\n    /**\r\n     * @dev get the note count by the author\r\n     * @param _author the author to be searched\r\n     */\r\n    function getNoteCountByAuthor(address _author) public view returns (uint) {\r\n        return authorCountMap[_author];\r\n    }\r\n\r\n    /**\r\n     * @dev get the note of the specified id\r\n     * @param _id the destination id\r\n     */\r\n    function getNoteById(uint _id) public view returns (address, string, string, string, uint) {\r\n        Note storage note = notes[_id].note;\r\n        return (note.author, note.title, note.content, note.tag, note.time);\r\n    }\r\n    \r\n    /**\r\n     * @dev get the note count of the specified tag\r\n     * @param _tag the specified tag\r\n     */\r\n    function getTagCount(string _tag) public view returns (uint) {\r\n        return tagCountMap[keccak256(bytes(_tag))];\r\n    }\r\n\r\n    /**\r\n     * @dev create a note\r\n     * @param _title the title\r\n     * @param _content the content\r\n     * @param _tag the tag\r\n     */\r\n    function createNote(string _title, string _content, string _tag) \r\n        public\r\n        notEmpty(_title, _content)\r\n        notDuplicated(_title)\r\n        returns (bool)\r\n    {\r\n        // increase the lastId\r\n        lastId++;\r\n        \r\n        // create a new note\r\n        Note memory note = Note(msg.sender, _title, _content, _tag, block.timestamp);\r\n        notes[lastId] = WrappedNote(note, true);\r\n        \r\n        // call the related handler\r\n        _onCreated(lastId, _title, _tag);\r\n\r\n        return true;\r\n    }\r\n    \r\n    /**\r\n     * @dev delete a note by id\r\n     * @param _id the destination id to be deleted\r\n     */\r\n    function deleteNote(uint _id) public exists(_id) onlyAuthor(_id) returns (bool) {\r\n        // get the note data\r\n        string memory title = notes[_id].note.title;\r\n        string memory tag = notes[_id].note.tag;\r\n        \r\n        // delete the destination note\r\n        delete notes[_id];\r\n        \r\n        // call the related handler\r\n        _onDeleted (_id, title, tag);\r\n\r\n        return true;\r\n    }\r\n\r\n    /**\r\n     * @dev modify the title of a note by id\r\n     * @param _id the destination id to be modified\r\n     * @param _newTitle the new title\r\n     */\r\n    function modifyTitle(uint _id, string _newTitle)\r\n        public\r\n        exists(_id)\r\n        onlyAuthor(_id)\r\n        newTitle(_newTitle)\r\n        returns (bool)\r\n    {\r\n        // get the original title\r\n        string memory oriTitle = notes[_id].note.title;\r\n\r\n        // modify the title\r\n        notes[_id].note.title = _newTitle;\r\n        \r\n        // call the related handler\r\n        _onModified(_id, oriTitle, _newTitle, 1); // 1 refers to title type\r\n        \r\n        return true;\r\n    }\r\n\r\n    /**\r\n     * @dev modify the content of a note by id\r\n     * @param _id the destination id to be modified\r\n     * @param _newContent the new content\r\n     */\r\n    function modifyContent(uint _id, string _newContent)\r\n        public\r\n        exists(_id)\r\n        onlyAuthor(_id)\r\n        newContent(_id, _newContent)\r\n        returns (bool)\r\n    {\r\n        // modify the content\r\n        notes[_id].note.content = _newContent;\r\n\r\n        // call the related handler\r\n        _onModified(_id, \"\", \"\", 2); // 2 refers to content type\r\n        \r\n        return true;\r\n    }\r\n    \r\n    /**\r\n     * @dev modify the title and content of a note by id\r\n     * @param _id the destination id to be modified\r\n     * @param _newTitle the new title\r\n     * @param _newContent the new content\r\n     */\r\n    function modifyNote(uint _id, string _newTitle, string _newContent)\r\n        public\r\n        exists(_id)\r\n        onlyAuthor(_id)\r\n        newTitle(_newTitle)\r\n        newContent(_id, _newContent)\r\n        returns (bool)\r\n    {\r\n        // get the original title\r\n        string memory oriTitle = notes[_id].note.title;\r\n\r\n        // modify the title and content\r\n        notes[_id].note.title = _newTitle;\r\n        notes[_id].note.content = _newContent;\r\n\r\n        // call the related handler\r\n        _onModified(_id, oriTitle, _newTitle, 0); // 0 refers to title and content type\r\n        \r\n        return true;\r\n    }\r\n\r\n    /**\r\n     * @dev a handler to be called when a note is created\r\n     * @param _id the id of the new note\r\n     * @param _title the title of the new note\r\n     * @param _tag the tag of the new note\r\n     */\r\n    function _onCreated(uint _id, string _title, string _tag) internal {\r\n        // handle authorIds\r\n        authorIds[msg.sender][_id] = true;\r\n\r\n        // handle authorCountMap\r\n        authorCountMap[msg.sender]++;\r\n\r\n        // handle authorTitleMap\r\n        authorTitleMap[msg.sender][keccak256(bytes(_title))] = true;\r\n\r\n        // handle tagCountMap\r\n        if (!SH.empty(_tag)) {\r\n            tagCountMap[keccak256(bytes(_tag))]++;\r\n        }\r\n\r\n        // increase the note count\r\n        noteCount++;\r\n\r\n        // fire the NoteCreated event\r\n        emit NoteCreated(msg.sender, _id);\r\n    }\r\n\r\n     /**\r\n     * @dev a handler to be called when a note is deleted\r\n     * @param _id the id of the deleted note\r\n     * @param _title the title of the deleted note\r\n     * @param _tag the tag of the deleted note\r\n     */\r\n    function _onDeleted(uint _id, string _title, string _tag) internal {\r\n        // handle authorIds\r\n        authorIds[msg.sender][_id] = false;\r\n\r\n        // handle authorCountMap\r\n        authorCountMap[msg.sender]--;\r\n\r\n        // handle authorTitleMap\r\n        authorTitleMap[msg.sender][keccak256(bytes(_title))] = false;\r\n\r\n        // handle tagCountMap\r\n        if (!SH.empty(_tag)) {\r\n            tagCountMap[keccak256(bytes(_tag))]--;\r\n        }\r\n\r\n        // decrease the note count\r\n        noteCount--;\r\n\r\n        // fire the NoteDeleted event\r\n        emit NoteDeleted(msg.sender, _id);\r\n    }\r\n\r\n    /**\r\n     * @dev a handler to be called when a note is modified\r\n     * @param _id the id of the modified note\r\n     * @param _old the old data of the modified part\r\n     * @param _new the new data of the modified part\r\n     */\r\n    function _onModified(uint _id, string _old, string _new, uint8 _type) internal {\r\n        // handle if title is modified\r\n        if (_type == 0 || _type == 1) {\r\n            authorTitleMap[msg.sender][keccak256(bytes(_old))] = false;\r\n            authorTitleMap[msg.sender][keccak256(bytes(_new))] = true;\r\n        }\r\n\r\n        // fire the NoteModified event\r\n        emit NoteModified(msg.sender, _id, _type);\r\n    }\r\n}",
  "sourcePath": "E:\\dear\\Project\\solidity\\note\\tmp-7820Ks15wgUDFleY\\box\\contracts\\DNote.sol",
  "compiler": {
    "name": "solc",
    "version": "0.4.24+commit.e67f0147.Emscripten.clang"
  },
  "schemaVersion": "2.0.1",
  "updatedAt": "2018-08-15T08:55:38.395Z"
}