{
  "contractName": "DNoteDelegator",
  "abi": [
    {
      "constant": true,
      "inputs": [],
      "name": "DNote",
      "outputs": [
        {
          "name": "",
          "type": "address"
        }
      ],
      "payable": false,
      "stateMutability": "view",
      "type": "function"
    },
    {
      "constant": true,
      "inputs": [],
      "name": "owner",
      "outputs": [
        {
          "name": "",
          "type": "address"
        }
      ],
      "payable": false,
      "stateMutability": "view",
      "type": "function"
    },
    {
      "inputs": [],
      "payable": false,
      "stateMutability": "nonpayable",
      "type": "constructor"
    },
    {
      "payable": false,
      "stateMutability": "nonpayable",
      "type": "fallback"
    },
    {
      "constant": false,
      "inputs": [
        {
          "name": "dnote",
          "type": "address"
        }
      ],
      "name": "setDNote",
      "outputs": [],
      "payable": false,
      "stateMutability": "nonpayable",
      "type": "function"
    }
  ],
  "bytecode": "0x608060405234801561001057600080fd5b5033600160006101000a81548173ffffffffffffffffffffffffffffffffffffffff021916908373ffffffffffffffffffffffffffffffffffffffff1602179055506102f4806100616000396000f300608060405260043610610057576000357c0100000000000000000000000000000000000000000000000000000000900463ffffffff1680631dc4215e146100b05780638da5cb5b14610107578063eb046c1c1461015e575b34801561006357600080fd5b506040513680600083378082016040526000808284346000546127105a03f1806001811461009857600081146100a5576100aa565b3d604051816000823e8181f35b600080fd5b50505050005b3480156100bc57600080fd5b506100c56101a1565b604051808273ffffffffffffffffffffffffffffffffffffffff1673ffffffffffffffffffffffffffffffffffffffff16815260200191505060405180910390f35b34801561011357600080fd5b5061011c6101c6565b604051808273ffffffffffffffffffffffffffffffffffffffff1673ffffffffffffffffffffffffffffffffffffffff16815260200191505060405180910390f35b34801561016a57600080fd5b5061019f600480360381019080803573ffffffffffffffffffffffffffffffffffffffff1690602001909291905050506101ec565b005b6000809054906101000a900473ffffffffffffffffffffffffffffffffffffffff1681565b600160009054906101000a900473ffffffffffffffffffffffffffffffffffffffff1681565b80600073ffffffffffffffffffffffffffffffffffffffff168173ffffffffffffffffffffffffffffffffffffffff161415610227576102c4565b600160009054906101000a900473ffffffffffffffffffffffffffffffffffffffff1673ffffffffffffffffffffffffffffffffffffffff163373ffffffffffffffffffffffffffffffffffffffff1614151561028357600080fd5b816000806101000a81548173ffffffffffffffffffffffffffffffffffffffff021916908373ffffffffffffffffffffffffffffffffffffffff1602179055505b50505600a165627a7a72305820c4a885d57ec3c9172cf3713e67ba414d297ea64c67fc61179b4382e9487481400029",
  "source": "/**\r\n * @file DNoteProxy.sol\r\n * @author sufay\r\n */\r\n\r\n\r\npragma solidity ^0.4.23;\r\n\r\n\r\n/**\r\n * @title DNoteDelegator is intended to be an entrance to the underlying contract\r\n */\r\ncontract DNoteDelegator {\r\n    address public DNote; // the underlying contract address\r\n    address public owner; // owner\r\n    \r\n    /**\r\n     * @dev assert caller has access to a function of the modifier\r\n     */\r\n    modifier hasPermission() {\r\n        require(msg.sender == owner);\r\n        _;\r\n    }\r\n\r\n    /**\r\n     * @dev check if the given address is valid\r\n     */\r\n    modifier valid(address addr) {\r\n        if (addr == address(0)) {\r\n            return;\r\n        }\r\n\r\n        _;\r\n    }\r\n\r\n    /**\r\n     * @dev constructor\r\n     */\r\n    constructor() public {\r\n        owner = msg.sender;\r\n    }\r\n\r\n    /**\r\n     * @dev forward call to DNote\r\n     */\r\n    function() public {\r\n        assembly {\r\n            let dataOffset := mload(0x40) // allocate free memory for input data\r\n            let dataLen := calldatasize // get the data length\r\n            calldatacopy(dataOffset, 0, dataLen) // copy data to allocated memory above\r\n            mstore(0x40, add(dataOffset, dataLen)) // update free memory pointer\r\n\r\n            // call\r\n            let success := call(sub(gas, 10000), sload(DNote_slot), callvalue, dataOffset, dataLen, 0, 0)\r\n            \r\n            // handle result\r\n            switch success\r\n            case 1 {\r\n                // call succeeded and return result data\r\n                \r\n                let resultLen := returndatasize // get result data length\r\n                let resultOffset := mload(0x40) // allocate free memory for result data\r\n                returndatacopy(resultOffset, 0, resultLen) // copy result data to memory\r\n\r\n                return(resultOffset, resultLen) // return result data\r\n            }\r\n            case 0 {\r\n                // call failed and revert\r\n                revert(0, 0)\r\n            }\r\n        }\r\n    }\r\n\r\n    /**\r\n     * @dev set the DNote address\r\n     * @param dnote the destination address\r\n     */\r\n    function setDNote(address dnote) public valid(dnote) hasPermission {\r\n        DNote = dnote;\r\n    }\r\n}\r\n",
  "sourcePath": "E:\\dear\\Project\\solidity\\note\\tmp-7820Ks15wgUDFleY\\box\\contracts\\DNoteDelegator.sol",
  "compiler": {
    "name": "solc",
    "version": "0.4.24+commit.e67f0147.Emscripten.clang"
  },
  "schemaVersion": "2.0.1",
  "updatedAt": "2018-08-15T08:55:38.382Z"
}