{
  "contractName": "StringHandler",
  "abi": [
    {
      "constant": true,
      "inputs": [
        {
          "name": "_first",
          "type": "string"
        },
        {
          "name": "_second",
          "type": "string"
        }
      ],
      "name": "equal",
      "outputs": [
        {
          "name": "",
          "type": "bool"
        }
      ],
      "payable": false,
      "stateMutability": "pure",
      "type": "function"
    },
    {
      "constant": true,
      "inputs": [
        {
          "name": "_str",
          "type": "string"
        }
      ],
      "name": "empty",
      "outputs": [
        {
          "name": "",
          "type": "bool"
        }
      ],
      "payable": false,
      "stateMutability": "pure",
      "type": "function"
    }
  ],
  "bytecode": "0x6102a8610030600b82828239805160001a6073146000811461002057610022565bfe5b5030600052607381538281f3007300000000000000000000000000000000000000003014608060405260043610610063576000357c0100000000000000000000000000000000000000000000000000000000900463ffffffff16806346bdca9a1461006857806364de095a14610122575b600080fd5b610108600480360381019080803590602001908201803590602001908080601f0160208091040260200160405190810160405280939291908181526020018383808284378201915050505050509192919290803590602001908201803590602001908080601f0160208091040260200160405190810160405280939291908181526020018383808284378201915050505050509192919290505050610196565b604051808215151515815260200191505060405180910390f35b61017c600480360381019080803590602001908201803590602001908080601f016020809104026020016040519081016040528093929190818152602001838380828437820191505050505050919291929050505061026f565b604051808215151515815260200191505060405180910390f35b6000816040518082805190602001908083835b6020831015156101ce57805182526020820191506020810190506020830392506101a9565b6001836020036101000a038019825116818451168082178552505050505050905001915050604051809103902060001916836040518082805190602001908083835b6020831015156102355780518252602082019150602081019050602083039250610210565b6001836020036101000a03801982511681845116808217855250505050505090500191505060405180910390206000191614905092915050565b60008082511490509190505600a165627a7a7230582078a7985517b18d425023ab9949eed55bc3221e323f585e5df1ff98c44dab5d280029",
  "source": "/**\r\n * @file StringHandler.sol\r\n * @author sufay\r\n */\r\n\r\npragma solidity ^0.4.23;\r\n\r\n\r\n/**\r\n * @title a library for handling string\r\n */\r\nlibrary StringHandler {\r\n    /**\r\n     * @dev test if the given strings are equal\r\n     * @param _first the first string\r\n     * @param _second the second string\r\n     */\r\n    function equal(string _first, string _second) public pure returns (bool) {\r\n        return (keccak256(bytes(_first)) == keccak256(bytes(_second)));\r\n    }\r\n\r\n     /**\r\n     * @dev check if the specified string is empty\r\n     * @param _str the specified string\r\n     */\r\n    function empty(string _str) public pure returns (bool) {\r\n        return (bytes(_str).length == 0);\r\n    }\r\n}\r\n",
  "sourcePath": "E:\\dear\\Project\\solidity\\note\\tmp-7820Ks15wgUDFleY\\box\\contracts\\lib\\StringHandler.sol",
  "compiler": {
    "name": "solc",
    "version": "0.4.24+commit.e67f0147.Emscripten.clang"
  },
  "schemaVersion": "2.0.1",
  "updatedAt": "2018-08-15T08:55:38.380Z"
}